{
  "contractName": "Consumer",
  "abi": [
    {
      "constant": true,
      "inputs": [
        {
          "name": "",
          "type": "bytes32"
        }
      ],
      "name": "prices",
      "outputs": [
        {
          "name": "",
          "type": "uint256"
        }
      ],
      "payable": false,
      "stateMutability": "view",
      "type": "function"
    },
    {
      "constant": false,
      "inputs": [],
      "name": "renounceOwnership",
      "outputs": [],
      "payable": false,
      "stateMutability": "nonpayable",
      "type": "function"
    },
    {
      "constant": true,
      "inputs": [],
      "name": "owner",
      "outputs": [
        {
          "name": "",
          "type": "address"
        }
      ],
      "payable": false,
      "stateMutability": "view",
      "type": "function"
    },
    {
      "constant": true,
      "inputs": [],
      "name": "jobId",
      "outputs": [
        {
          "name": "",
          "type": "bytes32"
        }
      ],
      "payable": false,
      "stateMutability": "view",
      "type": "function"
    },
    {
      "constant": false,
      "inputs": [
        {
          "name": "_newOwner",
          "type": "address"
        }
      ],
      "name": "transferOwnership",
      "outputs": [],
      "payable": false,
      "stateMutability": "nonpayable",
      "type": "function"
    },
    {
      "inputs": [
        {
          "name": "_token",
          "type": "address"
        },
        {
          "name": "_oracle",
          "type": "address"
        },
        {
          "name": "_jobId",
          "type": "bytes32"
        }
      ],
      "payable": false,
      "stateMutability": "nonpayable",
      "type": "constructor"
    },
    {
      "anonymous": false,
      "inputs": [
        {
          "indexed": true,
          "name": "requestId",
          "type": "bytes32"
        },
        {
          "indexed": false,
          "name": "price",
          "type": "uint256"
        }
      ],
      "name": "RequestFulfilled",
      "type": "event"
    },
    {
      "anonymous": false,
      "inputs": [
        {
          "indexed": true,
          "name": "previousOwner",
          "type": "address"
        }
      ],
      "name": "OwnershipRenounced",
      "type": "event"
    },
    {
      "anonymous": false,
      "inputs": [
        {
          "indexed": true,
          "name": "previousOwner",
          "type": "address"
        },
        {
          "indexed": true,
          "name": "newOwner",
          "type": "address"
        }
      ],
      "name": "OwnershipTransferred",
      "type": "event"
    },
    {
      "anonymous": false,
      "inputs": [
        {
          "indexed": true,
          "name": "id",
          "type": "bytes32"
        }
      ],
      "name": "ChainlinkRequested",
      "type": "event"
    },
    {
      "anonymous": false,
      "inputs": [
        {
          "indexed": true,
          "name": "id",
          "type": "bytes32"
        }
      ],
      "name": "ChainlinkFulfilled",
      "type": "event"
    },
    {
      "anonymous": false,
      "inputs": [
        {
          "indexed": true,
          "name": "id",
          "type": "bytes32"
        }
      ],
      "name": "ChainlinkCancelled",
      "type": "event"
    },
    {
      "constant": false,
      "inputs": [
        {
          "name": "_currency1",
          "type": "string"
        },
        {
          "name": "_currency2",
          "type": "string"
        }
      ],
      "name": "requestPrice",
      "outputs": [],
      "payable": false,
      "stateMutability": "nonpayable",
      "type": "function"
    },
    {
      "constant": false,
      "inputs": [
        {
          "name": "_requestId",
          "type": "bytes32"
        },
        {
          "name": "_payment",
          "type": "uint256"
        },
        {
          "name": "_callbackFunctionId",
          "type": "bytes4"
        },
        {
          "name": "_expiration",
          "type": "uint256"
        }
      ],
      "name": "cancelRequest",
      "outputs": [],
      "payable": false,
      "stateMutability": "nonpayable",
      "type": "function"
    },
    {
      "constant": false,
      "inputs": [
        {
          "name": "_requestId",
          "type": "bytes32"
        },
        {
          "name": "_price",
          "type": "uint256"
        }
      ],
      "name": "fulfill",
      "outputs": [],
      "payable": false,
      "stateMutability": "nonpayable",
      "type": "function"
    }
  ],
  "bytecode": "0x6080604052600160045534801561001557600080fd5b50604051606080620016e683398101604090815281516020830151919092015160068054600160a060020a0319163317905561005983640100000000610076810204565b61006b8264010000000061008b810204565b600755506100e19050565b6100888164010000000061009d810204565b50565b610088816401000000006100bf810204565b60028054600160a060020a031916600160a060020a0392909216919091179055565b60038054600160a060020a031916600160a060020a0392909216919091179055565b6115f580620000f16000396000f3006080604052600436106100745763ffffffff60e060020a6000350416632faffd8d81146100795780634357855e1461011257806360846bc61461012d578063715018a6146101575780638da5cb5b1461016c578063c2939d971461019d578063ec65d0f8146101b2578063f2fde38b146101dd575b600080fd5b34801561008557600080fd5b506040805160206004803580820135601f810184900484028501840190955284845261011094369492936024939284019190819084018382808284375050604080516020601f89358b018035918201839004830284018301909452808352979a9998810197919650918201945092508291508401838280828437509497506101fe9650505050505050565b005b34801561011e57600080fd5b506101106004356024356108b1565b34801561013957600080fd5b50610145600435610a0e565b60408051918252519081900360200190f35b34801561016357600080fd5b50610110610a20565b34801561017857600080fd5b50610181610a8e565b60408051600160a060020a039092168252519081900360200190f35b3480156101a957600080fd5b50610145610a9d565b3480156101be57600080fd5b50610110600435602435600160e060020a031960443516606435610aa3565b3480156101e957600080fd5b50610110600160a060020a0360043516610acc565b61020661157c565b606080600061022260075430634357855e60e060020a02610aef565b60408051600280825260608201909252919550816020015b606081526020019060019003908161023a579050509250858560405160200180807f68747470733a2f2f7777772e6269747374616d702e6e65742f6170692f76322f81526020017f7469636b65722f0000000000000000000000000000000000000000000000000081525060270183805190602001908083835b602083106102d35780518252601f1990920191602091820191016102b4565b51815160209384036101000a600019018019909216911617905285519190930192850191508083835b6020831061031b5780518252601f1990920191602091820191016102fc565b6001836020036101000a0380198251168184511680821785525050505050509050019250505060405160208183030381529060405283600081518110151561035f57fe5b90602001906020020181905250858560405160200180807f68747470733a2f2f6170692e70726f2e636f696e626173652e636f6d2f70726f81526020017f64756374732f000000000000000000000000000000000000000000000000000081525060260183805190602001908083835b602083106103ee5780518252601f1990920191602091820191016103cf565b6001836020036101000a038019825116818451168082178552505050505050905001807f2d0000000000000000000000000000000000000000000000000000000000000081525060010182805190602001908083835b602083106104635780518252601f199092019160209182019101610444565b6001836020036101000a038019825116818451168082178552505050505050905001807f2f7469636b657200000000000000000000000000000000000000000000000000815250600701925050506040516020818303038152906040528360018151811015156104cf57fe5b906020019060200201819052506105266040805190810160405280600381526020017f61706900000000000000000000000000000000000000000000000000000000008152508486610b0a9092919063ffffffff16565b6040805160028082526060820190925290816020015b606081526020019060019003908161053c5790505091506040805190810160405280600681526020017f242e6c617374000000000000000000000000000000000000000000000000000081525082600081518110151561059857fe5b906020019060200201819052506040805190810160405280600781526020017f242e7072696365000000000000000000000000000000000000000000000000008152508260018151811015156105ea57fe5b906020019060200201819052506106416040805190810160405280600581526020017f70617468730000000000000000000000000000000000000000000000000000008152508386610b0a9092919063ffffffff16565b604080518082018252600f81527f6167677265676174696f6e5479706500000000000000000000000000000000006020808301919091528251808401909352600683527f6d656469616e0000000000000000000000000000000000000000000000000000908301526106bb9186919063ffffffff610b7d16565b604080518082018252600881527f636f7079506174680000000000000000000000000000000000000000000000006020808301919091528251808401909352600e83527f61676772656761746556616c7565000000000000000000000000000000000000908301526107359186919063ffffffff610b7d16565b60408051808201909152600581527f74696d6573000000000000000000000000000000000000000000000000000000602082015261077c908590606463ffffffff610bac16565b61078e84670de0b6b3a7640000610bd6565b905085856040516020018083805190602001908083835b602083106107c45780518252601f1990920191602091820191016107a5565b51815160209384036101000a600019018019909216911617905285519190930192850191508083835b6020831061080c5780518252601f1990920191602091820191016107ed565b6001836020036101000a038019825116818451168082178552505050505050905001925050506040516020818303038152906040526040518082805190602001908083835b602083106108705780518252601f199092019160209182019101610851565b51815160209384036101000a600019018019909216911617905260408051929094018290039091206000968752600890915291909420555050505050505050565b6000828152600560205260409020548290600160a060020a0316331461095e57604080517f08c379a000000000000000000000000000000000000000000000000000000000815260206004820152602860248201527f536f75726365206d75737420626520746865206f7261636c65206f662074686560448201527f2072657175657374000000000000000000000000000000000000000000000000606482015290519081900360840190fd5b600081815260056020526040808220805473ffffffffffffffffffffffffffffffffffffffff191690555182917f7cc135e0cebb02c3480ae5d74d377283180a2601f8f644edf7987b009316c63a91a260408051838152905184917f1ca8663227a7fe9919713a01d344afbb434e234f35a3e540a6ad924f88771f38919081900360200190a250600082815260086020818152604080842080548552600983529084209490945593825290925255565b60096020526000908152604090205481565b600654600160a060020a03163314610a3757600080fd5b600654604051600160a060020a03909116907ff8df31144d9c2f0f6b59d69b8b98abd5459d07f2742c4df920b25aae33c6482090600090a26006805473ffffffffffffffffffffffffffffffffffffffff19169055565b600654600160a060020a031681565b60075481565b600654600160a060020a03163314610aba57600080fd5b610ac684848484610beb565b50505050565b600654600160a060020a03163314610ae357600080fd5b610aec81610ce9565b50565b610af761157c565b610b02848484610d67565b949350505050565b6080830151600090610b22908463ffffffff610d9216565b610b2f8460800151610daf565b5060005b8151811015610b7057610b688282815181101515610b4d57fe5b6020908102909101015160808601519063ffffffff610d9216565b600101610b33565b610ac68460800151610dba565b6080830151610b92908363ffffffff610d9216565b6080830151610ba7908263ffffffff610d9216565b505050565b6080830151610bc1908363ffffffff610d9216565b6080830151610ba7908263ffffffff610dc516565b6000610be28383610df2565b90505b92915050565b600084815260056020526040808220805473ffffffffffffffffffffffffffffffffffffffff1981169091559051600160a060020a039091169186917fe1fe3afa0f7f761ff0a8b89086790efd5140d2907ebd5b7ff6bfcb5e075fd4c59190a2604080517f6ee4d5530000000000000000000000000000000000000000000000000000000081526004810187905260248101869052600160e060020a031985166044820152606481018490529051600160a060020a03831691636ee4d55391608480830192600092919082900301818387803b158015610cca57600080fd5b505af1158015610cde573d6000803e3d6000fd5b505050505050505050565b600160a060020a0381161515610cfe57600080fd5b600654604051600160a060020a038084169216907f8be0079c531659141344cd1fd0a4f28419497f9722a3daafe3b4186f6b6457e090600090a36006805473ffffffffffffffffffffffffffffffffffffffff1916600160a060020a0392909216919091179055565b610d6f61157c565b610d7761157c565b610d898186868663ffffffff610e0c16565b95945050505050565b610d9f8260038351610e49565b610ba7828263ffffffff610f4616565b610aec816004610f60565b610aec816007610f60565b60008112610dde57610dd982600083610e49565b610dee565b610dee8260018360001903610e49565b5050565b600354600090610be290600160a060020a03168484610f79565b610e1461157c565b610e24856080015161010061122d565b5050918352600160a060020a03166020830152600160e060020a031916604082015290565b60178111610e6b57610e658360ff848116602002168317611267565b50610ba7565b60ff8111610e9f57610e8c836018602060ff8616021763ffffffff61126716565b50610e658382600163ffffffff61127f16565b61ffff8111610ed457610ec1836019602060ff8616021763ffffffff61126716565b50610e658382600263ffffffff61127f16565b63ffffffff8111610f0b57610ef883601a602060ff8616021763ffffffff61126716565b50610e658382600463ffffffff61127f16565b67ffffffffffffffff8111610ba757610f3383601b602060ff8616021763ffffffff61126716565b50610ac68382600863ffffffff61127f16565b610f4e6115b1565b610be283846000015151848551611298565b610ba782601f602060ff8516021763ffffffff61126716565b6000306004546040516020018083600160a060020a0316600160a060020a03166c01000000000000000000000000028152601401828152602001925050506040516020818303038152906040526040518082805190602001908083835b60208310610ff55780518252601f199092019160209182019101610fd6565b51815160209384036101000a6000190180199092169116179052604080519290940182900390912060045460608a015260008181526005909252838220805473ffffffffffffffffffffffffffffffffffffffff1916600160a060020a038c1617905592519295508594507fb5e6e01e79f91267dc17b4e6314d5d4d03593d2ceee0fbb452b750bd70ea5af99350919050a2600254600160a060020a0316634000aea085846110a38761134e565b6040518463ffffffff1660e060020a0281526004018084600160a060020a0316600160a060020a0316815260200183815260200180602001828103825283818151815260200191508051906020019080838360005b838110156111105781810151838201526020016110f8565b50505050905090810190601f16801561113d5780820380516001836020036101000a031916815260200191505b50945050505050602060405180830381600087803b15801561115e57600080fd5b505af1158015611172573d6000803e3d6000fd5b505050506040513d602081101561118857600080fd5b5051151561121d57604080517f08c379a000000000000000000000000000000000000000000000000000000000815260206004820152602360248201527f756e61626c6520746f207472616e73666572416e6443616c6c20746f206f726160448201527f636c650000000000000000000000000000000000000000000000000000000000606482015290519081900360840190fd5b6004805460010190559392505050565b6112356115b1565b602082061561124a5760208206602003820191505b506020828101829052604080518085526000815290920101905290565b61126f6115b1565b610be283846000015151846114a5565b6112876115b1565b610b028485600001515185856114f0565b6112a06115b1565b6000806000855185111515156112b557600080fd5b876020015185880111156112df576112df886112d78a602001518a890161154e565b600202611565565b8751805188602083010194508089880111156112fb5788870182525b60208801935050505b602085106113265781518352601f199094019360209283019290910190611304565b505181516020949094036101000a600019018019909116931692909217909152509192915050565b8051602080830151604080850151606086810151608088015151935160006024820181815260448301829052606483018a9052600160a060020a0388166084840152600160e060020a0319861660a484015260c48301849052600160e48401819052610100610104850190815288516101248601528851969b7f40429946000000000000000000000000000000000000000000000000000000009b949a8b9a91999098909796939591949361014401918501908083838e5b8381101561141e578181015183820152602001611406565b50505050905090810190601f16801561144b5780820380516001836020036101000a031916815260200191505b5060408051601f198184030181529190526020810180517bffffffffffffffffffffffffffffffffffffffffffffffffffffffff16600160e060020a0319909d169c909c17909b5250989950505050505050505050919050565b6114ad6115b1565b602084015183106114c9576114c9848560200151600202611565565b83518051602085830101848153818614156114e5576001820183525b509495945050505050565b6114f86115b1565b6000856020015185840111156115175761151786868501600202611565565b6001836101000a03905085518386820101858319825116178152815185880111156115425784870182525b50959695505050505050565b60008183111561155f575081610be5565b50919050565b8151611571838361122d565b50610ac68382610f46565b6040805160c0810182526000808252602082018190529181018290526060810191909152608081016115ac6115b1565b905290565b604080518082019091526060815260006020820152905600a165627a7a7230582032e590343281db619eb35def191bb3aed29be4083a481493f609f9c00d1d2d800029",
  "source": "pragma solidity 0.4.24;\r\n\r\nimport \"openzeppelin-solidity/contracts/ownership/Ownable.sol\";\r\nimport \"chainlink/contracts/Chainlinked.sol\";\r\n\r\ncontract Consumer is Chainlinked, Ownable {\r\n    // solium-disable-next-line zeppelin/no-arithmetic-operations\r\n    uint256 constant private ORACLE_PAYMENT = 1 * LINK;\r\n\r\n    bytes32 public jobId;\r\n\r\n    event RequestFulfilled(\r\n        bytes32 indexed requestId,\r\n        uint256 price\r\n    );\r\n\r\n    mapping(bytes32 => bytes32) requests;\r\n    mapping(bytes32 => uint256) public prices;\r\n\r\n    constructor(address _token, address _oracle, bytes32 _jobId) public {\r\n        setLinkToken(_token);\r\n        setOracle(_oracle);\r\n        jobId = _jobId;\r\n    }\r\n\r\n    /**\r\n        @dev Request the price using Bitstamp and Coinbase, returning a median value\r\n        @dev Value is multiplied by 100 to include 2 decimal places\r\n    */\r\n    function requestPrice(string _currency1, string _currency2) public {\r\n        Chainlink.Request memory req = newRequest(jobId, this, this.fulfill.selector);\r\n\r\n        string[] memory api = new string[](2);\r\n        api[0] = string(abi.encodePacked(\"https://www.bitstamp.net/api/v2/ticker/\", _currency1, _currency2));\r\n        api[1] = string(abi.encodePacked(\"https://api.pro.coinbase.com/products/\", _currency1, \"-\", _currency2, \"/ticker\"));\r\n        req.addStringArray(\"api\", api);\r\n\r\n        string[] memory paths = new string[](2);\r\n        paths[0] = \"$.last\";\r\n        paths[1] = \"$.price\";\r\n        req.addStringArray(\"paths\", paths);\r\n        req.add(\"aggregationType\", \"median\");\r\n        req.add(\"copyPath\", \"aggregateValue\");\r\n        req.addInt(\"times\", 100);\r\n\r\n        bytes32 requestId = chainlinkRequest(req, ORACLE_PAYMENT);\r\n        requests[requestId] = keccak256(abi.encodePacked(_currency1, _currency2));\r\n    }\r\n\r\n    function cancelRequest(bytes32 _requestId, uint256 _payment, bytes4 _callbackFunctionId, uint256 _expiration) public onlyOwner\r\n    {\r\n        cancelChainlinkRequest(_requestId, _payment, _callbackFunctionId, _expiration);\r\n    }\r\n\r\n    function fulfill(bytes32 _requestId, uint256 _price) public recordChainlinkFulfillment(_requestId)\r\n    {\r\n        emit RequestFulfilled(_requestId, _price);\r\n        prices[requests[_requestId]] = _price;\r\n        delete requests[_requestId];\r\n    }\r\n}",
  "sourcePath": "/Users/karlobencic/Documents/Git/FER/dlt-oracle/contracts/Consumer.sol",
  "compiler": {
    "name": "solc",
    "version": "0.4.24+commit.e67f0147.Emscripten.clang"
  },
  "schemaVersion": "3.1.0",
  "updatedAt": "2020-09-20T18:37:41.744Z",
  "networkType": "ethereum",
  "devdoc": {
    "methods": {
      "renounceOwnership()": {
        "details": "Allows the current owner to relinquish control of the contract."
      },
      "requestPrice(string,string)": {
        "details": "Request the price using Bitstamp and Coinbase, returning a median value\rValue is multiplied by 100 to include 2 decimal places\r"
      },
      "transferOwnership(address)": {
        "details": "Allows the current owner to transfer control of the contract to a newOwner.",
        "params": {
          "_newOwner": "The address to transfer ownership to."
        }
      }
    }
  },
  "userdoc": {
    "methods": {
      "renounceOwnership()": {
        "notice": "Renouncing to ownership will leave the contract without an owner. It will not be possible to call the functions with the `onlyOwner` modifier anymore."
      }
    }
  }
}